:020000040800F2
:10000000780600208901000891010008930100088A
:100010009501000897010008990100080000000000
:100020000000000000000000000000009B0100082C
:100030009D010008000000009F010008A1010008C8
:10004000390F00089D090008750C0008310B0008E5
:1000500031050008290B00087D040008850400080C
:10006000AD040008D5040008FD04000805040008DC
:10007000090400080D040008110400081504000814
:10008000190400081D04000845020008A301000827
:10009000A3010008A3010008A3010008010500084E
:1000A000790C0008850C0008810C00087D0C000804
:1000B000890C00088D0C0008510D00080506000889
:1000C000010600080D06000809060008350B0008A7
:1000D000390B0008290F00082D0F0008310F000808
:1000E000810400082D0B0008350F000800F002F80D
:1000F00000F03AF80AA090E8000C82448344AAF188
:100100000107DA4501D100F02FF8AFF2090EBAE885
:100110000F0013F0010F18BFFB1A43F0010318473B
:10012000540E0000740E0000103A24BF78C878C145
:10013000FAD8520724BF30C830C144BF04680C60ED
:10014000704700000023002400250026103A28BF35
:1001500078C1FBD8520728BF30C148BF0B60704739
:100160001FB51FBD10B510BD00F031F81146FFF7E7
:10017000F7FF00F0E9FE00F04FF803B4FFF7F2FFDD
:1001800003BC00F057F800000948804709480047C1
:10019000FEE7FEE7FEE7FEE7FEE7FEE7FEE7FEE737
:1001A000FEE7FEE704480549054A064B7047000094
:1001B0001D0C0008ED0000087800002078060020E3
:1001C000780200207802002070477047704775461B
:1001D00000F02CF8AE4605006946534620F00700B3
:1001E000854618B020B5FFF7DDFFBDE820404FF091
:1001F00000064FF000074FF000084FF0000BAC4630
:10020000ACE8C009ACE8C009ACE8C009ACE8C0097A
:1002100021F007018D46704710B50446AFF300800A
:100220002046BDE81040FFF7A8BF00000048704717
:100230000800002001491820ABBEFEE7260002009E
:1002400070470000704700008268002922F0010218
:1002500018BF01328260704780B542684FF6FF6375
:10026000CFF6F07302EA030C0B680A7943EA0C0339
:1002700043EA0222426082684FF2FD73CFF6F173C7
:1002800002EA030CD1E902E24B7942EA0C0242EAAB
:100290000E0242EA43028260C26A097C22F47002C2
:1002A0000139C9B242EA0151C16280BDB0B586B020
:1002B0004FF404700121012500F0DAFB4FF40040F7
:1002C00000F0B4FB012042F20044C0F20300C4F28B
:1002D00001040090A4F5C050694600F02BF90020FD
:1002E0004FF460210190CDE9031001A920468DF85B
:1002F00009508DF81450FFF7AFFF20460821012266
:10030000072300F043F820460121FFF79DFF204618
:10031000012100F06DF806B0B0BD0000B0B586B0A8
:100320004FF482600121012500F0A2FB4FF4004050
:1003300000F07CFB022042F60004C0F20300C4F28D
:1003400001040090A4F5E050694600F0F3F80020A5
:100350004FF460210190CDE9031002208DF81400C4
:1003600001A920468DF80950FFF776FF20460921A4
:100370000122072300F00AF820460121FFF764FF5D
:100380002046012100F034F806B0B0BDB0B501EB55
:10039000410C4FF0100E092988BFACF11E0C88BF2C
:1003A0004FF00C0E50F80E40072505FA0CF5AC4343
:1003B00003FA0CF32343062A40F80E3003D83430F6
:1003C0006FF0040307E00C2A87BF2C306FF0400366
:1003D00030306FF0220302EB820205681A441F23BB
:1003E000934025EA0303914019430160B0BD00002A
:1003F0008268002922F4A00218BF02F5A0028260E0
:100400007047000070470000704700007047000010
:100410007047000070470000704700007047000000
:10042000B0B504464EF210056FF00400CEF20005A0
:1004300000F0E8FB40F20000C2F2000000684DF658
:100440008361C4F21B31A0FB0101480D4FF47A71A6
:10045000484380B2604368600020A860286840F08C
:1004600001002860286800F001100128FAD02868EF
:1004700020F0010028600020A860B0BD7047000097
:100480007047000080B5022000F042F8002808BF45
:1004900080BD40F26800C2F20000016841F0010135
:1004A0000160022000F02EF880BD000080B504201D
:1004B00000F02EF8002808BF80BD40F26800C2F2AC
:1004C0000000016841F002010160042000F01AF808
:1004D00080BD000080B5082000F01AF8002808BF91
:1004E00080BD40F26800C2F20000016841F00401E2
:1004F0000160082000F006F880BD00007047000091
:100500007047000040F21441C4F2010108607047D6
:1005100040F20041C4F201010A6849690240084002
:1005200018BF0120002A18BF0122104070470000A8
:10053000704700002DE9F041CA7802F00F0CD30695
:1005400044BF8B784CEA030C09880B0621D0056860
:1005500000234FF001084FF00F0E002608E000BF07
:10056000282A08BF47610136082E03F104030FD083
:1005700008FA06F70F42F6D00EFA03F425EA04044F
:100580000CFA03F5482A45EA0405E9D10761EAE7D0
:100590000560B1F5807F38BFBDE8F0814468002375
:1005A0004FF4807E4FF00F08002607E0282A08BF8E
:1005B00047610136082E03F1040310D00EFA06F746
:1005C00007EA0105BD42F4D108FA03F5AC430CFA81
:1005D00003F5482A44EA0504E8D10761E9E74460E5
:1005E000BDE8F08180B500F075FC00F027F800F060
:1005F000D7F9FFF75BFEFFF791FE00F085F980BDAC
:10060000704700007047000070470000704700000E
:10061000828A008B60F3174202EA0100401AB0FAA6
:1006200080F04009704700000288002918BF0121AE
:1006300022F00102114401807047000010B586B01D
:100640004FF40010012100F0FBF90820012100F017
:100650000FFAC02045F20044C1F60340C4F2000482
:10066000019004F5384001A9FFF764FF204600F02F
:100670001BF80020CBF6FF7003903020C0F2004042
:1006800004904FF48040ADF8140041F68020C0F291
:100690000600029020460121FFF7C6FF02A920466E
:1006A00000F042F806B010BD10B545F20041C4F2AA
:1006B00000014FF48004884208BF4FF40014204624
:1006C000012100F0C9F92046002100F0C5F910BD54
:1006D0000288002918BF012122F4807242EA012118
:1006E000018070470288002918BF012122F400729E
:1006F00042EA41210180704782B0002201920092BB
:100700000090080F01900198002821F07F40009987
:1007100006BF000C18311431009100990968084097
:1007200018BF012002B0704770B586B004468088BB
:100730000D4620F03F0601A800F0A6F903994DF6FA
:100740008360C4F21B30A1FB000346EA9340A08003
:10075000208820F0010020802A6848F2A060C0F2C2
:10076000010082424FEA934008D85200B1FBF2F1F7
:100770004FF6FC72114208BF042125E0EB884BF6CE
:10078000FF76B34204D102EB4202B1FBF2F105E085
:1007900019235A43B1FBF2F141F480414FF49672B0
:1007A000504344F6D352C1F26202A0FB0202084653
:1007B0006FF31F30B0FA80F04009084348F200019F
:1007C000CFF6FF710143900901302084A183208876
:1007D0004FF6F53140F00100208020886A890840FA
:1007E000A988084310432080A889298908432081CB
:1007F00006B070BD01F0FE01002A18BF01221144AD
:1008000001827047018270472DE9F04145F20044B2
:1008100088460646C4F2000420464FF40031FFF734
:100820006BFF0028F8D120460121FFF751FF012777
:10083000C0F2030720463946FFF7EAFE0028F9D048
:100840008427204678210022C0F20707FFF7D2FF55
:10085000BD1E00BF20462946FFF7DAFE0028F9D06A
:1008600020463146FFF7CEFF20463946FFF7D0FE3F
:100870000028F9D020464146FFF7C4FF20463946FC
:10088000FFF7C6FE0028F9D020460121FFF72AFF16
:10089000BDE8F08110B5C17800294EF20011CEF20A
:1008A00000011AD04EF60C52CEF200021268072355
:1008B00023EA12220F23C2F1040C23FA02F2437836
:1008C000847890F800E003FA0CF322401A431201F6
:1008D00001EB0E0383F8002300E080310078012350
:1008E00000F01F0203FA02F2C0F3421041F8202088
:1008F00010BD000040F080604EF60C5140F0FD70DD
:10090000CEF200010860704780B56420FFF788FDD3
:10091000AE2000F013FB402000F010FBB02000F0F0
:100920000DFBC82000F00AFB812000F007FB8020AF
:1009300000F004FBA12000F001FBA62000F0FEFA6D
:10094000A82000F0FBFA1F2000F0F8FAD32000F0F6
:10095000F5FA002000F0F2FAD52000F0EFFAF020CE
:1009600000F0ECFAD92000F0E9FA222000F0E6FAD3
:10097000DA2000F0E3FA022000F0E0FADB2000F0D9
:10098000DDFA492000F0DAFA8D2000F0D7FA1420C1
:1009900000F0D4FAAF2000F0D1FA80BD704700001B
:1009A00070B588B005200121012500F061F84FF4F1
:1009B0000060012100F05CF840F2001042F60044B3
:1009C000C1F60300C4F201040790A4F5105007A972
:1009D000FFF7B0FD4720ADF810001020C2F20F70F5
:1009E0000026CDF8120004A92046ADF8166000F0EC
:1009F0001BFA7020ADF8000069462046ADF804509F
:100A0000ADF8086000F0D2F92046082100F006FA9F
:100A10002046012100F0B6F92046012100F09AF9A4
:100A20002046012100F0A4F908B070BD41F2040194
:100A3000C4F202010A6822F4404210430860704781
:100A4000002941F21C01C4F202010A680CBF22EA2B
:100A50000000104308607047002941F21001C4F201
:100A600002010A680CBF22EA0000104308607047C8
:100A7000002941F21801C4F202010A680CBF22EAFF
:100A8000000010430860704710B541F20404C4F23E
:100A90000204226802F00C02082A41F20022C0F28D
:100AA0007A021CD12368D4F800C0C3F3834E5FEAF6
:100AB000CC330EF1020C06D440F60012C0F23D0217
:100AC0000CFB02F20BE023689B0302D40CFB02F246
:100AD00005E040F60012C0F23D020CFB02F202609B
:100AE000226840F66273C2F30312C0F600039A5CF8
:100AF0000168D14041602268C2F302229A5C21FA67
:100B000002F282602268C2F3C2229A5C40F65E73EF
:100B1000D140C1602268C0F60003C2F381329A5C02
:100B2000B1FBF2F1016110BD704700007047000099
:100B300070470000704700007047000080B500F06B
:100B400001F880BD82B041F204000021C4F202002D
:100B50000191009150F8041C41F4803140F8041CCC
:100B600050F8041C01F40031009101990131019108
:100B7000009919B90199B1F5A06FF1D150F8041C91
:100B8000890354BF0021012100910099012936D128
:100B900042F20001C4F202010A6842F010020A6047
:100BA0000A6822F003020A600A6842F002020A6040
:100BB0000168016001680160016841F480610160C1
:100BC000016821F47C110160016841F4E8110160C1
:100BD00050F8041C41F0807140F8041C50F8041CCB
:100BE0008901FBD5016821F003010160016841F032
:100BF00002010160016801F00C010829FAD102B07C
:100C0000704700004EF21001CEF200010A6804287D
:100C100022F0040208BF04320A60704780B541F236
:100C20000000C4F202000168002241F001010160ED
:100C30004168CFF6FF021140416001684FF6FF7234
:100C4000CFF6F66211400160016821F48021016055
:100C5000416821F4FE0141604FF41F018160FFF7FC
:100C60006DFF4EF60850CEF200004FF000610160BB
:100C700080BD000070470000704700007047000012
:100C800070470000704700007047000080B540F2D8
:100C90006C0CC2F2000CDCF8001049F698134CF60C
:100CA000CD420131C1F69913CCF6CC4201FB0232A0
:100CB000CCF800104FEA7200984207D840F270005A
:100CC000C2F20000036843F0010303604FEAB20080
:100CD0004CF6CC42C0F6CC42904207D840F27000AD
:100CE000C2F20000026842F0020202604BF65000BD
:100CF00045F62942C0F21E50CCF28F2201FB0201C0
:100D00004FEA7102824207D840F27000C2F200003E
:100D1000026842F0040202604FEAB10045F6284141
:100D2000C0F28F2188420AD840F27001C2F200015D
:100D30000A680020CCF8000042F00800086040F289
:100D40000040C4F20000012100F00EF880BD000058
:100D5000704700000288002918BF012122F080029C
:100D600042EAC11101807047C94301827047000007
:100D70000288002918BF012122F0010211440180DC
:100D800070470000B0F84420002918BF01216FF31C
:100D9000DF3242EAC131A0F844107047002A82894C
:100DA0000CBF22EA0101114381817047B0B5028C6A
:100DB00022F001020284038C8288B0F818C00C89EA
:100DC00023F002032343A0F180444D88A4F5963418
:100DD000B1F800E04FEAB424072C43EA050313D826
:100DE000012505FA04F414F0E50F0DD04C8923F029
:100DF0000C0324F004048D8823438C892B4322F4B4
:100E00004072CD8922432A432CF0730545EA0E0532
:100E100082800583C98881860384B0BD028B22F05D
:100E2000080211430183704740F6FF33B0F800C059
:100E3000C4F2000398420FDCB0F1804F1ED040F2A4
:100E40000043C4F20003984218D040F60003C4F2F5
:100E50000003984212D016E040F60043C4F20003AB
:100E600098420BD043F20043C4F20103984205D0EC
:100E700042F60043C4F20103984204D14B882CF09F
:100E8000700243EA020C41F2004240F48063C4F273
:100E90000002934204D0CA882CF4407342EA030C47
:100EA000A0F800C08A888285A0F18042A2F596321F
:100EB0000B884FEAB222072A038507D8012303FAD9
:100EC00002F212F0E50F1CBF097A0186012181822E
:100ED0007047000010B584B002200121FFF7B0FD7B
:100EE00040F20044C4F2000420460121FFF73CFF19
:100EF0004FF47A70029048F69F40019001A9204675
:100F0000FFF792FF204601210122FFF747FF4FF430
:100F1000C060FFF7EFFC1D20C0F201100090684692
:100F2000FFF7B8FC04B010BD704700007047000028
:100F300070470000704700007047000080B5014610
:100F40000020FFF761FC80BDFFF74CFB40F2004042
:100F5000C4F200000121FFF70BFF00BFFEE702040F
:100F60000608000000000102030401020304060752
:100F700008090000980F0008000000200800000089
:100F800028010008A00F00080800002070060000DB
:100F9000440100080000000000A24A040000000014
:04000005080000ED02
:00000001FF
